{
  "contractName": "HelloWorld",
  "abi": [
    {
      "inputs": [
        {
          "internalType": "string",
          "name": "_name",
          "type": "string"
        }
      ],
      "stateMutability": "nonpayable",
      "type": "constructor"
    },
    {
      "inputs": [],
      "name": "name",
      "outputs": [
        {
          "internalType": "string",
          "name": "",
          "type": "string"
        }
      ],
      "stateMutability": "view",
      "type": "function",
      "constant": true
    },
    {
      "inputs": [],
      "name": "getName",
      "outputs": [
        {
          "internalType": "string",
          "name": "",
          "type": "string"
        }
      ],
      "stateMutability": "view",
      "type": "function",
      "constant": true
    },
    {
      "inputs": [
        {
          "internalType": "string",
          "name": "_name",
          "type": "string"
        }
      ],
      "name": "setName",
      "outputs": [],
      "stateMutability": "nonpayable",
      "type": "function"
    }
  ],
  "bytecode": "0x608060405234801562000010575f80fd5b5060405162000c4838038062000c488339818101604052810190620000369190620001d3565b805f908162000046919062000459565b50506200053d565b5f604051905090565b5f80fd5b5f80fd5b5f80fd5b5f80fd5b5f601f19601f8301169050919050565b7f4e487b71000000000000000000000000000000000000000000000000000000005f52604160045260245ffd5b620000af8262000067565b810181811067ffffffffffffffff82111715620000d157620000d062000077565b5b80604052505050565b5f620000e56200004e565b9050620000f38282620000a4565b919050565b5f67ffffffffffffffff82111562000115576200011462000077565b5b620001208262000067565b9050602081019050919050565b5f5b838110156200014c5780820151818401526020810190506200012f565b5f8484015250505050565b5f6200016d6200016784620000f8565b620000da565b9050828152602081018484840111156200018c576200018b62000063565b5b620001998482856200012d565b509392505050565b5f82601f830112620001b857620001b76200005f565b5b8151620001ca84826020860162000157565b91505092915050565b5f60208284031215620001eb57620001ea62000057565b5b5f82015167ffffffffffffffff8111156200020b576200020a6200005b565b5b6200021984828501620001a1565b91505092915050565b5f81519050919050565b7f4e487b71000000000000000000000000000000000000000000000000000000005f52602260045260245ffd5b5f60028204905060018216806200027157607f821691505b6020821081036200028757620002866200022c565b5b50919050565b5f819050815f5260205f209050919050565b5f6020601f8301049050919050565b5f82821b905092915050565b5f60088302620002eb7fffffffffffffffffffffffffffffffffffffffffffffffffffffffffffffffff82620002ae565b620002f78683620002ae565b95508019841693508086168417925050509392505050565b5f819050919050565b5f819050919050565b5f620003416200033b62000335846200030f565b62000318565b6200030f565b9050919050565b5f819050919050565b6200035c8362000321565b620003746200036b8262000348565b848454620002ba565b825550505050565b5f90565b6200038a6200037c565b6200039781848462000351565b505050565b5b81811015620003be57620003b25f8262000380565b6001810190506200039d565b5050565b601f8211156200040d57620003d7816200028d565b620003e2846200029f565b81016020851015620003f2578190505b6200040a62000401856200029f565b8301826200039c565b50505b505050565b5f82821c905092915050565b5f6200042f5f198460080262000412565b1980831691505092915050565b5f6200044983836200041e565b9150826002028217905092915050565b620004648262000222565b67ffffffffffffffff81111562000480576200047f62000077565b5b6200048c825462000259565b62000499828285620003c2565b5f60209050601f831160018114620004cf575f8415620004ba578287015190505b620004c685826200043c565b86555062000535565b601f198416620004df866200028d565b5f5b828110156200050857848901518255600182019150602085019450602081019050620004e1565b8683101562000528578489015162000524601f8916826200041e565b8355505b6001600288020188555050505b505050505050565b6106fd806200054b5f395ff3fe608060405234801561000f575f80fd5b506004361061003f575f3560e01c806306fdde031461004357806317d7de7c14610061578063c47f00271461007f575b5f80fd5b61004b61009b565b6040516100589190610251565b60405180910390f35b610069610126565b6040516100769190610251565b60405180910390f35b610099600480360381019061009491906103ae565b6101b5565b005b5f80546100a790610422565b80601f01602080910402602001604051908101604052809291908181526020018280546100d390610422565b801561011e5780601f106100f55761010080835404028352916020019161011e565b820191905f5260205f20905b81548152906001019060200180831161010157829003601f168201915b505050505081565b60605f805461013490610422565b80601f016020809104026020016040519081016040528092919081815260200182805461016090610422565b80156101ab5780601f10610182576101008083540402835291602001916101ab565b820191905f5260205f20905b81548152906001019060200180831161018e57829003601f168201915b5050505050905090565b805f90816101c391906105f8565b5050565b5f81519050919050565b5f82825260208201905092915050565b5f5b838110156101fe5780820151818401526020810190506101e3565b5f8484015250505050565b5f601f19601f8301169050919050565b5f610223826101c7565b61022d81856101d1565b935061023d8185602086016101e1565b61024681610209565b840191505092915050565b5f6020820190508181035f8301526102698184610219565b905092915050565b5f604051905090565b5f80fd5b5f80fd5b5f80fd5b5f80fd5b7f4e487b71000000000000000000000000000000000000000000000000000000005f52604160045260245ffd5b6102c082610209565b810181811067ffffffffffffffff821117156102df576102de61028a565b5b80604052505050565b5f6102f1610271565b90506102fd82826102b7565b919050565b5f67ffffffffffffffff82111561031c5761031b61028a565b5b61032582610209565b9050602081019050919050565b828183375f83830152505050565b5f61035261034d84610302565b6102e8565b90508281526020810184848401111561036e5761036d610286565b5b610379848285610332565b509392505050565b5f82601f83011261039557610394610282565b5b81356103a5848260208601610340565b91505092915050565b5f602082840312156103c3576103c261027a565b5b5f82013567ffffffffffffffff8111156103e0576103df61027e565b5b6103ec84828501610381565b91505092915050565b7f4e487b71000000000000000000000000000000000000000000000000000000005f52602260045260245ffd5b5f600282049050600182168061043957607f821691505b60208210810361044c5761044b6103f5565b5b50919050565b5f819050815f5260205f209050919050565b5f6020601f8301049050919050565b5f82821b905092915050565b5f600883026104ae7fffffffffffffffffffffffffffffffffffffffffffffffffffffffffffffffff82610473565b6104b88683610473565b95508019841693508086168417925050509392505050565b5f819050919050565b5f819050919050565b5f6104fc6104f76104f2846104d0565b6104d9565b6104d0565b9050919050565b5f819050919050565b610515836104e2565b61052961052182610503565b84845461047f565b825550505050565b5f90565b61053d610531565b61054881848461050c565b505050565b5b8181101561056b576105605f82610535565b60018101905061054e565b5050565b601f8211156105b05761058181610452565b61058a84610464565b81016020851015610599578190505b6105ad6105a585610464565b83018261054d565b50505b505050565b5f82821c905092915050565b5f6105d05f19846008026105b5565b1980831691505092915050565b5f6105e883836105c1565b9150826002028217905092915050565b610601826101c7565b67ffffffffffffffff81111561061a5761061961028a565b5b6106248254610422565b61062f82828561056f565b5f60209050601f831160018114610660575f841561064e578287015190505b61065885826105dd565b8655506106bf565b601f19841661066e86610452565b5f5b8281101561069557848901518255600182019150602085019450602081019050610670565b868310156106b257848901516106ae601f8916826105c1565b8355505b6001600288020188555050505b50505050505056fea2646970667358221220dfe882b89cf66950cebe07283f0f8d3e02b830eb2e05de18bdbd091bd657070364736f6c63430008150033",
  "immutableReferences": {},
  "source": "pragma solidity ^0.8.21;\n\ncontract HelloWorld {\n    string public name;\n\n    constructor(string memory _name) {\n        name = _name;\n    }\n\n    function getName() public view returns(string memory) {\n        return name;\n    }\n\n    function setName(string memory _name) public {\n        name = _name;\n    }\n}\n",
  "sourcePath": "/home/srcres/Coding/Projects/blockchain-learn/blockchain/consortium_blockchain/truffletest1/contracts/HelloWorld.sol",
  "compiler": {
    "name": "solc",
    "version": "0.8.21+commit.d9974bed.Emscripten.clang"
  },
  "schemaVersion": "3.4.16",
  "updatedAt": "2024-12-23T10:57:12.657Z",
  "networkType": "ethereum",
  "devdoc": {
    "kind": "dev",
    "methods": {},
    "version": 1
  },
  "userdoc": {
    "kind": "user",
    "methods": {},
    "version": 1
  }
}